:100000000C942A000C94050D0C94320D0C945F0D89
:100010000C9447000C9447000C9447000C94621712
:100020000C9447000C9447000C94F5170C9447006F
:100030000C9447000C9447000C9447000C94470024
:100040000C941E080C9447000C9447000C94470035
:100050000C94470011241FBECFE5D4E0DEBFCDBF16
:1000600011E0A0E6B0E0EEE4F2E302C005900D92EC
:10007000AE36B107D9F711E0AEE6B1E001C01D928E
:10008000A638B107E1F70E949F180C9425190C942B
:100090000000EF92FF920F931F937B018C0120E0F1
:1000A00030E040E05FE40E94F50388238CF0C80153
:1000B000B70120E030E040E05FE40E94C1010E940F
:1000C00055049B01AC01205030404040504806C0D0
:1000D000C801B7010E9455049B01AC01B901CA01D6
:1000E0001F910F91FF90EF900895A0E0B0E0EBE733
:1000F000F0E00C94EE18DC012B01FA019C91923097
:1001000008F439C1EB018881823008F433C194309E
:1001100069F4843009F02FC111969C91119789815F
:10012000981709F428C1A0E6B0E025C1843009F48D
:1001300021C18230A9F4923009F01DC19A01AD01AC
:1001400088E0EA010990AE01E90109929E0181501F
:10015000C1F7E201898111969C918923818308C1AD
:10016000923009F407C112962D903C901397EB0141
:100170008A819B811496AD90BD90CD90DC901797AD
:10018000EC80FD800E811F819101281B390BB90184
:1001900037FF04C066277727621B730B6032710537
:1001A0000CF061C0121613066CF537014801062EDB
:1001B00004C096948794779467940A94D2F721E0C8
:1001C00030E040E050E004C0220F331F441F551FB1
:1001D0006A95D2F721503040404050402E213F21B7
:1001E00040235123211531054105510521F021E01E
:1001F00030E040E050E079018A01E628F72808293C
:1002000019293CC0232BD1F1260E371E350146019A
:10021000062E04C096948794779467940A94D2F734
:1002200021E030E040E050E004C0220F331F441FC3
:10023000551F6A95D2F721503040404050402A2146
:100240003B214C215D21211531054105510521F04E
:1002500021E030E040E050E059016A01A628B728CB
:10026000C828D9280BC0821593052CF01C01AA249C
:10027000BB24650103C0EE24FF24870111969C91E5
:10028000D20111968C91981709F445C0992339F041
:10029000A80197012A193B094C095D0906C0A6016E
:1002A00095012E193F09400B510B57FD08C01182D3
:1002B0003382228224833583468357831DC081E0A5
:1002C00081833382228288279927DC01821B930B4A
:1002D000A40BB50B84839583A683B7830DC0220F2F
:1002E000331F441F551F24833583468357838281E0
:1002F000938101979383828324813581468157813D
:10030000DA01C9010197A109B1098F5F9F4FAF4F72
:10031000BF4328F30BC0918333822282EA0CFB1C7B
:100320000C1D1D1DE482F5820683178383E0808304
:10033000248135814681578157FF1AC0C901AA27F8
:1003400097FDA095BA2F81709070A070B0705695EF
:10035000479537952795822B932BA42BB52B848318
:100360009583A683B7838281938101969383828349
:10037000DF0101C0D201CD01CDB7DEB7E2E10C94BF
:100380000A19A0E2B0E0E7ECF1E00C94FA186983F6
:100390007A838B839C832D833E834F835887E9E048
:1003A000EE2EF12CEC0EFD1ECE010196B7010E943F
:1003B00046068E010F5E1F4FCE010596B8010E94C2
:1003C00046068A8991E089278A8BC701B801AE0168
:1003D000475E5F4F0E9475000E947105A096E6E09F
:1003E0000C941619A0E2B0E0E8EFF1E00C94FA18D2
:1003F00069837A838B839C832D833E834F835887C5
:10040000F9E0EF2EF12CEC0EFD1ECE010196B701A6
:100410000E9446068E010F5E1F4FCE010596B80161
:100420000E944606C701B801AE01475E5F4F0E94B9
:1004300075000E947105A096E6E00C941619A0E2E2
:10044000B0E0E5E2F2E00C94EE1869837A838B83E6
:100450009C832D833E834F835887CE010196BE0136
:10046000675F7F4F0E944606CE010596BE016F5E14
:100470007F4F0E9446069985923088F089898230A4
:10048000C8F0943019F4823051F404C0843029F457
:10049000923081F480E690E0C6C0923049F420E0CA
:1004A0009A858A89981321E02A87CE010996BBC0D4
:1004B000823049F420E09A858A89981321E02A8BBA
:1004C000CE014196B0C02D843E844F8458886D88FB
:1004D0007E888F88988CEE24FF248701AA24BB2471
:1004E000650140E050E060E070E0E0E0F0E0C10174
:1004F00081709070892BE9F0E60CF71C081D191D1E
:100500009A01AB012A0D3B1D4C1D5D1D80E090E062
:10051000A0E0B0E0E614F7040805190520F481E036
:1005200090E0A0E0B0E0BA01A901480F591F6A1F8E
:100530007B1FAA0CBB1CCC1CDD1C97FE08C081E0F5
:1005400090E0A0E0B0E0A82AB92ACA2ADB2A3196B6
:10055000E032F10549F0660C771C881C991C569412
:10056000479437942794C3CFFA85EA892B893C892D
:100570008B859C85280F391F2E5F3F4F17C0CA01FE
:1005800081709070892B61F016950795F794E79428
:1005900080E090E0A0E0B0E8E82AF92A0A2B1B2BC3
:1005A00076956795579547952F5F3F4F77FDE7CF36
:1005B0000CC0440F551F661F771F17FD4160EE0CDE
:1005C000FF1C001F111F21503040403090E05907A0
:1005D00090E0690790E4790760F32B8F3C8FDB0193
:1005E000CA018F779070A070B07080349105A1051A
:1005F000B10561F447FD0AC0E114F10401051105DC
:1006000029F0405C5F4F6F4F7F4F40781A8EFE1786
:1006100011F081E08A8F4D8F5E8F6F8F78A383E01A
:10062000898FCE0149960E947105A096E2E10C9453
:100630000A19A8E1B0E0EFE1F3E00C94F618698341
:100640007A838B839C832D833E834F835887B9E0C5
:10065000EB2EF12CEC0EFD1ECE010196B7010E948F
:1006600046068E010F5E1F4FCE010596B8010E940F
:1006700046062985223008F47EC03989323010F4CC
:10068000B8017CC08A859A8989278A87243011F02D
:10069000223031F4231709F06EC060E670E06EC0BE
:1006A000343039F41D861E861F86188A1C861B86E8
:1006B00004C0323021F484E08987B7015FC02B8504
:1006C0003C858B899C89281B390B3C872B87ED84C3
:1006D000FE840F851889AD88BE88CF88D88CEA142F
:1006E000FB040C051D0540F4EE0CFF1C001F111F40
:1006F000215030403C872B8720E030E040E050E044
:1007000080E090E0A0E0B0E460E070E0EA14FB0478
:100710000C051D0540F0282B392B4A2B5B2BEA18C2
:10072000FB080C091D09B695A79597958795EE0CC2
:10073000FF1C001F111F6F5F7F4F6F31710531F775
:10074000DA01C9018F779070A070B0708034910584
:10075000A105B10561F427FD0AC0E114F10401050A
:10076000110529F0205C3F4F4F4F5F4F20782D87B8
:100770003E874F87588BBE01675F7F4FCB010E943A
:1007800071056896EAE00C941219A8E1B0E0EBEC70
:10079000F3E00C94FA1869837A838B839C832D830E
:1007A0003E834F83588789E0E82EF12CEC0EFD1E26
:1007B000CE010196B7010E9446068E010F5E1F4FC3
:1007C000CE010596B8010E9446068985823040F028
:1007D0008989823028F0C701B8010E94BE0601C095
:1007E0008FEF6896E6E00C941619A8E1B0E0EBEF05
:1007F000F3E00C94FA1869837A838B839C832D83AE
:100800003E834F83588789E0E82EF12CEC0EFD1EC5
:10081000CE010196B7010E9446068E010F5E1F4F62
:10082000CE010596B8010E9446068985823040F0C7
:100830008989823028F0C701B8010E94BE0601C034
:100840008FEF6896E6E00C941619A8E1B0E0EBE2B1
:10085000F4E00C94FA1869837A838B839C832D834C
:100860003E834F83588789E0E82EF12CEC0EFD1E65
:10087000CE010196B7010E9446068E010F5E1F4F02
:10088000CE010596B8010E9446068985823040F067
:100890008989823028F0C701B8010E94BE0601C0D4
:1008A00081E06896E6E00C941619ACE0B0E0EBE568
:1008B000F4E00C94FE1869837A838B839C83CE01C9
:1008C0000196BE016B5F7F4F0E9446068D8182308C
:1008D00061F1823050F1843021F48E81882351F10E
:1008E0002EC02F81388537FD20C06E812F31310514
:1008F0001CF06623F9F023C08EE190E0821B930B7D
:1009000029853A854B855C8504C056954795379572
:1009100027958A95D2F76623B1F05095409530958A
:1009200021953F4F4F4F5F4F0EC020E030E040E039
:1009300050E009C02FEF3FEF4FEF5FE704C020E02A
:1009400030E040E050E8B901CA012C96E2E00C9496
:100950001A19A8E0B0E0EFEAF4E00C94F6187B0175
:100960008C01611571058105910519F482E0898377
:1009700060C083E089838EE1C82ED12CDC82CB82DB
:10098000ED82FE820F831887C801B7010E942205FD
:10099000FC013197F7FF3BC0222733272E1B3F0B6B
:1009A00057016801022E04C0D694C794B794A79447
:1009B0000A94D2F740E050E060E070E081E090E01F
:1009C000A0E0B0E004C0880F991FAA1FBB1F2A95A2
:1009D000D2F70197A109B1098E219F21A023B1234C
:1009E0000097A105B10521F041E050E060E070E022
:1009F0004A295B296C297D294D835E836F83788723
:100A00008EE190E08E1B9F0B9C838B8312C03097EE
:100A100081F00E2E04C0EE0CFF1C001F111F0A9463
:100A2000D2F7ED82FE820F831887CE1ADF0ADC82AE
:100A3000CB821A82CE0101960E9471052896EAE0C7
:100A40000C941219EF92FF920F931F937B018C016C
:100A500080E0E81680E0F80681E0080780E01807EB
:100A600088F48FEFE816F1040105110531F028F044
:100A700088E090E0A0E0B0E017C080E090E0A0E067
:100A8000B0E012C080E0E81680E0F80680E00807D9
:100A900081E0180728F088E190E0A0E0B0E004C011
:100AA00080E190E0A0E0B0E020E230E040E050E003
:100AB000281B390B4A0B5B0B04C016950795F7945E
:100AC000E7948A95D2F7F701E859FF4F8081281BF8
:100AD000310941095109C9011F910F91FF90EF9010
:100AE0000895DF92EF92FF920F931F93FC01E48031
:100AF000F58006811781D1808081823048F480E0C2
:100B000090E0A0E1B0E0E82AF92A0A2B1B2BA5C04F
:100B1000843009F49FC0823021F4EE24FF24870141
:100B200005C0E114F1040105110519F4E0E0F0E05D
:100B300096C0628173819FEF623879070CF05BC0C9
:100B400022E83FEF261B370B2A3131052CF020E03D
:100B500030E040E050E02AC0B801A701022E04C0F6
:100B600076956795579547950A94D2F781E090E07E
:100B7000A0E0B0E004C0880F991FAA1FBB1F2A95F0
:100B8000D2F70197A109B1098E219F21A023B1239A
:100B90000097A105B10521F081E090E0A0E0B0E070
:100BA0009A01AB01282B392B4A2B5B2BDA01C901A7
:100BB0008F779070A070B07080349105A105B10559
:100BC00039F427FF09C0205C3F4F4F4F5F4F04C0EF
:100BD000215C3F4F4F4F5F4FE0E0F0E02030A0E05E
:100BE0003A07A0E04A07A0E45A0710F0E1E0F0E07D
:100BF00079018A0127C06038710564F5FB01E1586D
:100C0000FF4FD801C7018F779070A070B07080340B
:100C10009105A105B10539F4E7FE0DC080E490E02F
:100C2000A0E0B0E004C08FE390E0A0E0B0E0E80E08
:100C3000F91E0A1F1B1F17FF05C016950795F7948D
:100C4000E794319687E016950795F794E7948A958F
:100C5000D1F705C0EE24FF248701EFEFF0E06E2FFF
:100C6000679566276795902F9F77D794DD24D79453
:100C70008E2F8695492F462B582F5D29B701CA0123
:100C80001F910F91FF90EF90DF900895FC01DB0121
:100C9000408151812281622F6F7770E0221F2227CD
:100CA000221F9381892F880F822B282F30E0991FD4
:100CB0009927991F11969C93119721153105A9F534
:100CC000411551056105710511F482E037C082E8D4
:100CD0009FEF13969C938E9312979A01AB0167E056
:100CE000220F331F441F551F6A95D1F783E08C9361
:100CF0000DC0220F331F441F551F12968D919C91DA
:100D00001397019713969C938E931297203080E04F
:100D1000380780E0480780E4580758F314962D936D
:100D20003D934D935C93179708952F3F310579F4C8
:100D3000411551056105710519F484E08C930895FE
:100D400064FF03C081E08C9312C01C9210C02F5727
:100D5000304013963C932E93129783E08C9387E058
:100D6000440F551F661F771F8A95D1F7706414963C
:100D70004D935D936D937C93179708951F93DC01BA
:100D8000FB019C91923008F447C08081823008F4C6
:100D900043C0943051F411961C91843099F58181AF
:100DA000682F70E0611B71093FC0843021F09230E0
:100DB00031F48230B9F18181882389F12DC01196F7
:100DC0001C9111978230F1F081811817D9F4129695
:100DD0002D913C911397828193818217930794F010
:100DE00028173907BCF014968D919D910D90BC91F8
:100DF000A02D2481358146815781281739074A075C
:100E00005B0718F4112341F00AC082179307A40767
:100E1000B50740F4112319F061E070E005C06FEFF1
:100E20007FEF02C060E070E0CB011F910895DF9377
:100E3000CF93CDB7DEB7A7E2B0E0E7E2F0E0808184
:100E400080648C93A7E2B0E0E7E2F0E080818F77E6
:100E50008C93A7E2B0E0E7E2F0E080818F7D8C9395
:100E6000A6E2B0E0E6E2F0E0808184608C93A6E246
:100E7000B0E0E6E2F0E0808182608C93A6E2B0E030
:100E8000E6E2F0E0808181608C93A6E2B0E0E6E2E9
:100E9000F0E0808180688C93CF91DF910895DF939B
:100EA000CF9300D000D0CDB7DEB78B831A821982E2
:100EB0008B8187708B83A7E2B0E0E7E2F0E080816E
:100EC000807E8C93A7E2B0E0E7E2F0E090818B8136
:100ED000892B8C93A6E2B0E0E6E2F0E080818064AA
:100EE0008C93E6E2F0E08081E4E2F0E080819181A1
:100EF0009A83898389819A810F900F900F900F9028
:100F0000CF91DF910895DF93CF93CDB7DEB7A7E2FE
:100F1000B0E0E7E2F0E0808180648C93A7E2B0E08B
:100F2000E7E2F0E080818F778C93A7E2B0E0E7E220
:100F3000F0E080818F7D8C93A6E2B0E0E6E2F0E005
:100F4000808184608C93A6E2B0E0E6E2F0E08081EC
:100F500082608C93A6E2B0E0E6E2F0E080818160FE
:100F60008C93A6E2B0E0E6E2F0E0808180688C93AA
:100F7000A6E2B0E0E6E2F0E0808188608C93CF9159
:100F8000DF910895DF93CF93CDB7DEB7A6E2B0E04F
:100F9000E6E2F0E08081877F8C93CF91DF91089526
:100FA000DF93CF93CDB7DEB7A6E2B0E0E6E2F0E0A4
:100FB000808188608C93CF91DF910895DF93CF93E8
:100FC0000F92CDB7DEB78983898187708983A7E2C5
:100FD000B0E0E7E2F0E08081807E8C93A7E2B0E0B1
:100FE000E7E2F0E090818981892B8C93A6E2B0E062
:100FF000E6E2F0E0808180648C930F90CF91DF91E6
:101000000895DF93CF93CDB7DEB7E4E2F0E08081BF
:101010009181CF91DF910895DF93CF9300D0CDB729
:10102000DEB79A83898389819A8190937A0180932C
:1010300079010F900F90CF91DF9108951F920F9239
:101040000FB60F9211242F933F934F935F936F939B
:101050007F938F939F93AF93BF93EF93FF93DF9310
:10106000CF93CDB7DEB7E0917901F0917A01099580
:10107000CF91DF91FF91EF91BF91AF919F918F91B0
:101080007F916F915F914F913F912F910F900FBE84
:101090000F901F901895DF93CF93CDB7DEB72897A9
:1010A0000FB6F894DEBF0FBECDBF8A836B834C832F
:1010B00081E089838A81883008F0F1C08C81813099
:1010C00009F071C08B81282F30E038872F838F8102
:1010D00098858130910549F12F813885223031057D
:1010E0002CF48F819885009761F05BC02F81388543
:1010F0002230310571F18F81988583309105E9F1B6
:1011000050C0AAE3B0E0EAE3F0E08081482F8A8192
:10111000282F30E081E090E0022E02C0880F991F56
:101120000A94E2F7842B8C93BBC0A7E3B0E0E7E31B
:10113000F0E08081482F8A81282F30E081E090E024
:10114000022E02C0880F991F0A94E2F7842B8C9319
:10115000A7C0A4E3B0E0E4E3F0E08081482F8A81F7
:10116000282F30E081E090E0022E02C0880F991F06
:101170000A94E2F7842B8C9393C0A1E3B0E0E1E3FF
:10118000F0E08081482F8A81282F30E081E090E0D4
:10119000022E02C0880F991F0A94E2F7842B8C93C9
:1011A0007FC019827DC08C81882309F076C08B8135
:1011B000282F30E03E832D838D819E8181309105E3
:1011C00059F12D813E81223031052CF48D819E8193
:1011D000009769F060C02D813E812230310589F190
:1011E0008D819E818330910509F440C054C0AAE3EB
:1011F000B0E0EAE3F0E08081482F8A81282F30E0D8
:1012000081E090E0022E02C0880F991F0A94E2F755
:10121000809584238C9344C0A7E3B0E0E7E3F0E03B
:101220008081482F8A81282F30E081E090E0022ED3
:1012300002C0880F991F0A94E2F7809584238C934B
:101240002FC0A4E3B0E0E4E3F0E08081482F8A817E
:10125000282F30E081E090E0022E02C0880F991F15
:101260000A94E2F7809584238C931AC0A1E3B0E03E
:10127000E1E3F0E08081482F8A81282F30E081E08F
:1012800090E0022E02C0880F991F0A94E2F7809521
:1012900084238C9305C0198203C0198201C019826E
:1012A000898128960FB6F894DEBF0FBECDBFCF91CF
:1012B000DF910895DF93CF9300D000D000D0CDB759
:1012C000DEB78A836B834C8381E089838A8188308F
:1012D00008F0E8C08B81282F30E03E832D838D817C
:1012E0009E818130910509F448C02D813E812230D4
:1012F00031052CF48D819E81009771F0D1C02D8134
:101300003E812230310509F469C08D819E81833090
:10131000910509F494C0C4C08C818130A1F4ABE381
:10132000B0E0EBE3F0E08081482F8A81282F30E0A5
:1013300081E090E0022E02C0880F991F0A94E2F724
:10134000842B8C93B0C08C818823A9F4ABE3B0E0EC
:10135000EBE3F0E08081482F8A81282F30E081E0A4
:1013600090E0022E02C0880F991F0A94E2F7809540
:1013700084238C9398C0198296C08C818130A1F40B
:10138000A8E3B0E0E8E3F0E08081482F8A81282FCD
:1013900030E081E090E0022E02C0880F991F0A948D
:1013A000E2F7842B8C937FC08C818823A9F4A8E377
:1013B000B0E0E8E3F0E08081482F8A81282F30E018
:1013C00081E090E0022E02C0880F991F0A94E2F794
:1013D000809584238C9367C0198265C08C8181308D
:1013E000A1F4A5E3B0E0E5E3F0E08081482F8A8135
:1013F000282F30E081E090E0022E02C0880F991F74
:101400000A94E2F7842B8C934EC08C818823A9F434
:10141000A5E3B0E0E5E3F0E08081482F8A81282F42
:1014200030E081E090E0022E02C0880F991F0A94FC
:10143000E2F7809584238C9336C0198234C08C8166
:101440008130A1F4A2E3B0E0E2E3F0E08081482F34
:101450008A81282F30E081E090E0022E02C0880FC0
:10146000991F0A94E2F7842B8C931DC08C818823EA
:10147000A9F4A2E3B0E0E2E3F0E08081482F8A81A2
:10148000282F30E081E090E0022E02C0880F991FE3
:101490000A94E2F7809584238C9305C0198203C0D7
:1014A000198201C01982898126960FB6F894DEBF91
:1014B0000FBECDBFCF91DF910895DF93CF9300D0C2
:1014C00000D0CDB7DEB789836A838981282F30E0C9
:1014D0003C832B838B819C8181309105D1F02B81C2
:1014E0003C81223031052CF48B819C81009761F086
:1014F0001EC02B813C812230310581F08B819C8183
:101500008330910581F013C0EBE3F0E08A818083A2
:101510000EC0E8E3F0E08A81808309C0E5E3F0E0F3
:101520008A81808304C0E2E3F0E08A8180830F90A7
:101530000F900F900F90CF91DF910895DF93CF938D
:1015400000D000D0CDB7DEB789836A838981282F88
:1015500030E03C832B838B819C8181309105D1F0DD
:101560002B813C81223031052CF48B819C810097AA
:1015700061F01EC02B813C812230310581F08B81CE
:101580009C818330910581F013C0EAE3F0E08A8109
:1015900080830EC0E7E3F0E08A81808309C0E4E342
:1015A000F0E08A81808304C0E1E3F0E08A818083F7
:1015B0000F900F900F900F90CF91DF910895DF93D0
:1015C000CF93CDB7DEB727970FB6F894DEBF0FBE27
:1015D000CDBF8A836B835D834C8381E089838A815D
:1015E000883008F073C08B81282F30E03F832E8332
:1015F0004E815F814130510559F18E819F8182304A
:10160000910534F42E813F812115310569F05CC0CC
:101610004E815F814230510579F18E819F81833007
:10162000910509F43DC050C0E9E3F0E08081282F26
:1016300030E08A81882F90E0A90102C05595479536
:101640008A95E2F7CA018170EC81FD8180833FC0F9
:10165000E6E3F0E08081282F30E08A81882F90E057
:10166000A90102C0559547958A95E2F7CA01817094
:10167000EC81FD8180832BC0E3E3F0E08081282FA3
:1016800030E08A81882F90E0A90102C055954795E6
:101690008A95E2F7CA018170EC81FD81808317C0D1
:1016A000E0E3F0E08081282F30E08A81882F90E00D
:1016B000A90102C0559547958A95E2F7CA01817044
:1016C000EC81FD81808303C0198201C01982898168
:1016D00027960FB6F894DEBF0FBECDBFCF91DF9136
:1016E0000895DF93CF93CDB7DEB70E942218CF9134
:1016F000DF910895DF93CF9300D000D0CDB7DEB750
:101700009A8389836B830E9438180E9490188830CE
:1017100011F01C8228C089819A8180709770880F8F
:10172000892F881F990B9195806A0E9453180E94F7
:101730009018883111F01C8216C089810E945318BC
:101740000E949018883211F01C820DC08B810E947B
:1017500053180E949018883211F01C8204C00E9415
:10176000481881E08C838C810F900F900F900F9020
:10177000CF91DF910895DF93CF9300D000D00F92E7
:10178000CDB7DEB79A8389837C836B830E94381838
:101790000E949018883011F01D8244C089819A817E
:1017A00080709770880F892F881F990B9195806A98
:1017B0000E9453180E949018883111F01D8232C087
:1017C00089810E9453180E949018883211F01D825E
:1017D00029C00E9438180E949018803111F01D8293
:1017E00021C089819A8180709770880F892F881F06
:1017F000990B9195816A0E9453180E949018803429
:1018000011F01D820FC00E947D18EB81FC81808346
:101810000E949018883511F01D8204C00E9448185B
:1018200081E08D838D810F900F900F900F900F901E
:10183000CF91DF910895DF93CF93CDB7DEB7A5E5C4
:10184000B0E0E5E5F0E0808182608C93A5E5B0E052
:10185000E5E5F0E080818E7F8C93ABE5B0E0EBE5D1
:10186000F0E0808180648C93CF91DF910895DF93C5
:10187000CF93CDB7DEB7A5E5B0E0E5E5F0E0808138
:1018800084608C93A5E5B0E0E5E5F0E080818860B8
:101890008C93ABE5B0E0EBE5F0E0808180688C9361
:1018A000CF91DF910895DF93CF93CDB7DEB7A4E555
:1018B000B0E0E4E5F0E080818F7B8C93ABE5B0E0B5
:1018C000EBE5F0E0808180628C93CF91DF91089509
:1018D000DF93CF9300D00F92CDB7DEB78983898194
:1018E000282F30E03B832A838A819B8181309105B8
:1018F00021F12A813B81223031052CF48A819B81A0
:10190000009761F046C02A813B812230310521F1E8
:101910008A819B818330910571F13BC0A5E5B0E0E0
:10192000E5E5F0E0808182608C93A5E5B0E0E5E537
:10193000F0E080818E7F8C932CC0A5E5B0E0E5E5DA
:10194000F0E0808184608C93A5E5B0E0E5E5F0E00F
:10195000808188608C931DC0A5E5B0E0E5E5F0E0EE
:1019600080818D7F8C93A5E5B0E0E5E5F0E0808196
:1019700088608C930EC0A5E5B0E0E5E5F0E08081DD
:101980008D7F8C93A5E5B0E0E5E5F0E080818E7F6A
:101990008C930F900F900F90CF91DF910895DF936C
:1019A000CF9300D0CDB7DEB79A83898389819A819E
:1019B00090937F0180937E010F900F90CF91DF91E4
:1019C0000895DF93CF9300D0CDB7DEB79A83898394
:1019D00089819A8190938101809380010F900F906B
:1019E000CF91DF910895DF93CF9300D0CDB7DEB7CD
:1019F0009A83898389819A8190937D0180937C0168
:101A00000F900F90CF91DF9108951F920F920FB614
:101A10000F9211242F933F934F935F936F937F9374
:101A20008F939F93AF93BF93EF93FF93DF93CF93E6
:101A3000CDB7DEB7E0917E01F0917F010995CF919E
:101A4000DF91FF91EF91BF91AF919F918F917F9126
:101A50006F915F914F913F912F910F900FBE0F901B
:101A60001F9018951F920F920FB60F9211242F936B
:101A70003F934F935F936F937F938F939F93AF9316
:101A8000BF93EF93FF93DF93CF93CDB7DEB7E09192
:101A90008001F09181010995CF91DF91FF91EF9144
:101AA000BF91AF919F918F917F916F915F914F9176
:101AB0003F912F910F900FBE0F901F9018951F927E
:101AC0000F920FB60F9211242F933F934F935F9372
:101AD0006F937F938F939F93AF93BF93EF93FF93F6
:101AE000DF93CF93CDB7DEB7E0917C01F0917D011C
:101AF0000995CF91DF91FF91EF91BF91AF919F91A8
:101B00008F917F916F915F914F913F912F910F90A6
:101B10000FBE0F901F901895DF93CF93CDB7DEB710
:101B2000AFE5B0E0EFE5F0E0808180688C93CF9185
:101B3000DF910895DF93CF93CDB7DEB7AFE5B0E087
:101B4000EFE5F0E080818F778C93CF91DF9108955E
:101B5000DF93CF9300D0CDB7DEB78A8385E089834A
:101B60008A81882331F08A818F3518F48A818B5FCE
:101B7000898389810F900F90CF91DF910895DF9332
:101B8000CF9300D0CDB7DEB78A8383E689838A817D
:101B9000853030F08A81843618F48A8185508983B3
:101BA00089810F900F90CF91DF910895DF93CF93AC
:101BB000CDB7DEB785E063E040E00E944B0886E0E9
:101BC00063E040E00E944B0885E063E041E00E9452
:101BD0005A0986E063E041E00E945A0982E061E030
:101BE00041E00E945A0982E063E040E00E944B0815
:101BF00085EF93E10E94CF0C0E941B0C83E063E011
:101C000040E00E944B0889E194E10E94E10C0E94AF
:101C1000370C82E061E040E00E944B0886EB93E1E4
:101C20000E94F30C0E94530C87E062E041E00E94A6
:101C30004B0887E062E040E00E945A0982E062E0DF
:101C400041E00E944B0882E062E040E00E945A09B5
:101C500081E060E041E00E944B0884E063E041E005
:101C60000E944B0884E061E041E00E944B0885E05F
:101C700063E041E00E944B080E941D1584E60E942B
:101C8000D5170E948F1788ED94E10E94501786E9BE
:101C900090E00E943E170E94E3168DE394E10E94BB
:101CA0000C080E9483070E948C0DCF91DF9108954C
:101CB0000F931F93DF93CF93CDB7DEB7C356D040BA
:101CC0000FB6F894DEBF0FBECDBFFE01ED59FF4F3A
:101CD0008091680180830E94C207FE01ED59FF4F89
:101CE00080810E946C150E945B15FE01E15AFF4F36
:101CF00080E090E0AAEFB3E480839183A283B38372
:101D00008E01055A1F4FFE01E15AFF4F608171811C
:101D10008281938120E030E04AE753E40E941F0271
:101D2000DC01CB01F80180839183A283B383FE01A0
:101D3000E55AFF4F608171818281938120E030E01C
:101D400040E85FE30E942504882344F4FE01E75A3B
:101D5000FF4F81E090E09183808364C0FE01E55AEB
:101D6000FF4F608171818281938120E03FEF4FE7D7
:101D700057E40E94C50318160CF043C0FE01E15A57
:101D8000FF4F608171818281938120E030E040E2E9
:101D900051E40E941F02DC01CB018E01075A1F4F44
:101DA000BC01CD010E944900DC01CB01F801918307
:101DB00080831FC0FE01E95AFF4F89E190E09183C3
:101DC0008083FE01E95AFF4F808191810197F1F7ED
:101DD000FE01E95AFF4F91838083DE01A75ABF4F6E
:101DE000FE01E75AFF4F80819181019711969C93E4
:101DF0008E93FE01E75AFF4F808191810097D1F6C3
:101E000027C08E01075A1F4FFE01E55AFF4F608120
:101E10007181828193810E944900DC01CB01F8012C
:101E200091838083DE01AB5ABF4FFE01E75AFF4F1B
:101E3000808191818D939C93FE01EB5AFF4F8081AD
:101E400091810197F1F7FE01EB5AFF4F9183808357
:101E5000FE01ED59FF4F80810E946C15FE01EF5A83
:101E6000FF4F80E090E0AAEFB3E480839183A283E8
:101E7000B3838E01035B1F4FFE01EF5AFF4F60815A
:101E800071818281938120E030E04AE753E40E942F
:101E90001F02DC01CB01F80180839183A283B3830D
:101EA000FE01E35BFF4F608171818281938120E0BD
:101EB00030E040E85FE30E942504882344F4FE01FB
:101EC000E55BFF4F81E090E09183808364C0FE0179
:101ED000E35BFF4F608171818281938120E03FEF5E
:101EE0004FE757E40E94C50318160CF043C0FE01EB
:101EF000EF5AFF4F608171818281938120E030E051
:101F000040E251E40E941F02DC01CB018E01055B1F
:101F10001F4FBC01CD010E944900DC01CB01F8013B
:101F2000918380831FC0FE01E75BFF4F89E190E052
:101F300091838083FE01E75BFF4F80819181019750
:101F4000F1F7FE01E75BFF4F91838083DE01A55B24
:101F5000BF4FFE01E55BFF4F808191810197119694
:101F60009C938E93FE01E55BFF4F808191810097EA
:101F7000D1F627C08E01055B1F4FFE01E35BFF4FCB
:101F800060817181828193810E944900DC01CB01D3
:101F9000F80191838083DE01A95BBF4FFE01E55B01
:101FA000FF4F808191818D939C93FE01E95BFF4FF0
:101FB000808191810197F1F7FE01E95BFF4F9183E9
:101FC00080830E945B15FE01ED5BFF4F80E090E097
:101FD000AAEFB3E480839183A283B3838E01015C73
:101FE0001F4FFE01ED5BFF4F608171818281938104
:101FF00020E030E04AE753E40E941F02DC01CB01FD
:10200000F80180839183A283B383FE01FF966081F0
:1020100071818281938120E030E040E85FE30E949B
:10202000250488232CF481E090E09EAF8DAF46C05C
:10203000FE01FF96608171818281938120E03FEFF4
:102040004FE757E40E94C503181664F5FE01ED5BE7
:10205000FF4F608171818281938120E030E040E216
:1020600051E40E941F02DC01CB01BC01CD010E94A2
:102070004900DC01CB019EAF8DAF0FC089E190E03C
:102080009CAF8BAF8BAD9CAD0197F1F79CAF8BAF45
:102090008DAD9EAD01979EAF8DAF8DAD9EAD00977E
:1020A00069F716C0FE01FF9660817181828193817C
:1020B0000E944900DC01CB019EAF8DAF8DAD9EAD7E
:1020C0009AAF89AF89AD9AAD0197F1F79AAF89AF11
:1020D000FE01ED59FF4F80810E946C1580E090E079
:1020E000AAEFB3E48DAB9EABAFABB8AF6DA97EA941
:1020F0008FA998AD20E030E04AE753E40E941F0228
:10210000DC01CB0189AB9AABABABBCAB69A97AA9BB
:102110008BA99CA920E030E040E85FE30E94250401
:1021200088232CF481E090E098AB8FA73FC069A989
:102130007AA98BA99CA920E03FEF4FE757E40E94C2
:10214000C50318164CF56DA97EA98FA998AD20E09E
:1021500030E040E251E40E941F02DC01CB01BC01EF
:10216000CD010E944900DC01CB0198AB8FA70FC0C5
:1021700089E190E09EA78DA78DA59EA50197F1F717
:102180009EA78DA78FA598A9019798AB8FA78FA51C
:1021900098A9009769F714C069A97AA98BA99CA985
:1021A0000E944900DC01CB0198AB8FA78FA598A9AD
:1021B0009CA78BA78BA59CA50197F1F79CA78BA744
:1021C0000E945B1580E090E0AAEFB3E48FA398A78C
:1021D000A9A7BAA76FA178A589A59AA520E030E0A4
:1021E0004AE753E40E941F02DC01CB018BA39CA3AE
:1021F000ADA3BEA36BA17CA18DA19EA120E030E088
:1022000040E85FE30E94250488232CF481E090E0FD
:102210009AA389A33FC06BA17CA18DA19EA120E0C0
:102220003FEF4FE757E40E94C50318164CF56FA126
:1022300078A589A59AA520E030E040E251E40E940B
:102240001F02DC01CB01BC01CD010E944900DC0171
:10225000CB019AA389A30FC089E190E098A38F8F47
:102260008F8D98A10197F1F798A38F8F89A19AA1DB
:1022700001979AA389A389A19AA1009769F714C02D
:102280006BA17CA18DA19EA10E944900DC01CB0124
:102290009AA389A389A19AA19E8F8D8F8D8D9E8DE2
:1022A0000197F1F79E8F8D8FFE01ED59FF4F8081D1
:1022B0000E946C1580E090E0AAEFB3E4898F9A8FBA
:1022C000AB8FBC8F698D7A8D8B8D9C8D20E030E03B
:1022D0004AE753E40E941F02DC01CB018D8B9E8BE9
:1022E000AF8BB88F6D897E898F89988D20E030E023
:1022F00040E85FE30E94250488232CF481E090E00D
:102300009C8B8B8B3FC06D897E898F89988D20E057
:102310003FEF4FE757E40E94C50318164CF5698D4F
:102320007A8D8B8D9C8D20E030E040E251E40E945C
:102330001F02DC01CB01BC01CD010E944900DC0180
:10234000CB019C8B8B8B0FC089E190E09A8B898BA2
:1023500089899A890197F1F79A8B898B8B899C8956
:1023600001979C8B8B8B8B899C89009769F714C094
:102370006D897E898F89988D0E944900DC01CB018F
:102380009C8B8B8B8B899C89988B8F878F85988969
:102390000197F1F7988B8F870E945B1580E090E0A2
:1023A000AAEFB3E48B879C87AD87BE876B857C855E
:1023B0008D859E8520E030E04AE753E40E941F02AD
:1023C000DC01CB018F839887A987BA876F817885D5
:1023D00089859A8520E030E040E85FE30E9425048B
:1023E00088232CF481E090E09E838D833FC06F8131
:1023F000788589859A8520E03FEF4FE757E40E9472
:10240000C50318164CF56B857C858D859E8520E06F
:1024100030E040E251E40E941F02DC01CB01BC012C
:10242000CD010E944900DC01CB019E838D830FC04A
:1024300089E190E09C838B838B819C810197F1F7EC
:102440009C838B838D819E8101979E838D838D815B
:102450009E81009769F714C06F81788589859A8578
:102460000E944900DC01CB019E838D838D819E817A
:102470009A83898389819A810197F1F79A83898365
:102480000E944215FE01ED59FF4F80810E946C159C
:102490000E94D007CD59DF4F0FB6F894DEBF0FBEB4
:1024A000CDBFCF91DF911F910F910895DF93CF930F
:1024B00000D0CDB7DEB789836A8380917101813006
:1024C000F9F499818A81891728F40E9486130E9461
:1024D000AA1316C099818A81981750F40E9492130A
:1024E0000E949E1387E062E041E00E945A0908C002
:1024F00099818A81981721F40E9492130E94AA134D
:102500000F900F90CF91DF910895DF93CF93CDB7C8
:10251000DEB76C970FB6F894DEBF0FBECDBF87E075
:1025200062E041E00E945A0980E090E0AAE7B4E44A
:10253000898F9A8FAB8FBC8F698D7A8D8B8D9C8D97
:1025400020E030E04AE753E40E941F02DC01CB01A7
:102550008D8B9E8BAF8BB88F6D897E898F89988D7F
:1025600020E030E040E85FE30E94250488232CF45B
:1025700081E090E09C8B8B8B3FC06D897E898F8939
:10258000988D20E03FEF4FE757E40E94C5031816EF
:102590004CF5698D7A8D8B8D9C8D20E030E040E28A
:1025A00051E40E941F02DC01CB01BC01CD010E945D
:1025B0004900DC01CB019C8B8B8B0FC089E190E043
:1025C0009A8B898B89899A890197F1F79A8B898BE4
:1025D0008B899C8901979C8B8B8B8B899C8900971D
:1025E00069F714C06D897E898F89988D0E94490092
:1025F000DC01CB019C8B8B8B8B899C89988B8F8783
:102600008F8598890197F1F7988B8F8787E062E033
:1026100040E00E945A0980E090E0AAE7B4E48B878A
:102620009C87AD87BE876B857C858D859E8520E0E8
:1026300030E04AE753E40E941F02DC01CB018F83A4
:102640009887A987BA876F81788589859A8520E0E0
:1026500030E040E85FE30E94250488232CF481E009
:1026600090E09E838D833FC06F81788589859A85B0
:1026700020E03FEF4FE757E40E94C50318164CF5E2
:102680006B857C858D859E8520E030E040E251E4BD
:102690000E941F02DC01CB01BC01CD010E94490058
:1026A000DC01CB019E838D830FC089E190E09C8388
:1026B0008B838B819C810197F1F79C838B838D8128
:1026C0009E8101979E838D838D819E81009769F7FE
:1026D00014C06F81788589859A850E944900DC0144
:1026E000CB019E838D838D819E819A83898389818D
:1026F0009A810197F1F79A8389836C960FB6F894C3
:10270000DEBF0FBECDBFCF91DF910895DF93CF9392
:10271000CDB7DEB784E063E041E00E945A09CF9173
:10272000DF910895DF93CF93CDB7DEB784E063E008
:1027300040E00E945A09CF91DF910895DF93CF9333
:10274000CDB7DEB781E060E041E00E945A09CF9149
:10275000DF910895DF93CF93CDB7DEB781E060E0DE
:1027600040E00E945A09CF91DF910895DF93CF9303
:10277000CDB7DEB780916C01882F90E081709070AA
:102780000097C1F40E9492130E94AA130E945B1545
:1027900087E062E040E00E945A092091680180E0F1
:1027A00090E0622F0E947A0B81E080938301109267
:1027B000710113C080916C01882F90E0817090703E
:1027C000882359F00E94421581E00E946C1582E036
:1027D0008093830181E08093710180916C018F5F10
:1027E00080936C01CF91DF910895DF93CF93CDB7A4
:1027F000DEB7809171018130C9F4809168010E9437
:102800006C15809168018B3468F4809168010E9496
:10281000A80D80936801809168010E946C150E9448
:10282000580E04C0809168010E946C15CF91DF9111
:102830000895DF93CF93CDB7DEB7809171018130DA
:10284000C9F4809168010E946C15809168018432FE
:1028500068F0809168010E94BF0D809368018091AB
:1028600068010E946C150E94580E04C08091680196
:102870000E946C15CF91DF9108950F931F93DF9302
:10288000CF93CDB7DEB72D970FB6F894DEBF0FBE4E
:10289000CDBF80917101813009F07FC08AE0FE01D7
:1028A0003496DF01982F1D929A95E9F71B821A82C0
:1028B000109278016DC080917801082F10E00E947D
:1028C0000108282FCE010496FC01E00FF11F2083A0
:1028D00080917801893009F056C0198214C089812D
:1028E000282F30E0CE010496FC01E20FF31F808117
:1028F000282F30E08A819B81820F931F9B838A83DC
:1029000089818F5F898389818A3048F38A819B819D
:102910002AE030E0B9010E94C718CB01CC01A0E049
:10292000B0E0BC01CD010E94A904DC01CB01809381
:10293000740190937501A0937601B0937701809113
:10294000740190917501A0917601B0917701BC015D
:10295000CD012AE63CEB44E050E40E941903DC017F
:10296000CB01BC01CD0120E030E040E85FE30E94F4
:10297000F201DC01CB018093740190937501A09367
:102980007601B0937701809178018F5F8093780111
:10299000809178018A3008F48ECF2D960FB6F89486
:1029A000DEBF0FBECDBFCF91DF911F910F91089574
:1029B000DF93CF93CDB7DEB780917101813099F469
:1029C00080E00E94DE078091740190917501A091D2
:1029D0007601B0917701BC01CD010E944900DC0174
:1029E000CB010E946C15CF91DF910895DF93CF93B7
:1029F000CDB7DEB78091740190917501A0917601F9
:102A0000B0917701BC01CD010E944900DC01CB01EE
:102A1000CF91DF910895DF93CF93CDB7DEB780914B
:102A20006801CF91DF910895DF93CF93CDB7DEB7E3
:102A300080917101CF91DF910895DF93CF93CDB74E
:102A4000DEB784E060E041E00E944B0885E060E092
:102A500041E00E944B0886E060E041E00E944B08A4
:102A600087E060E041E00E944B0880E061E041E0E7
:102A70000E944B0881E061E041E00E944B08CF9149
:102A8000DF910895DF93CF930F92CDB7DEB70E9409
:102A9000141589838981813051F480E061E041E03F
:102AA0000E945A0981E061E041E00E945A090F90BA
:102AB000CF91DF910895DF93CF93CDB7DEB780E05C
:102AC00061E040E00E945A0981E061E040E00E943C
:102AD0005A09CF91DF910895DF93CF93CDB7DEB739
:102AE000A0970FB6F894DEBF0FBECDBF88A31F8E90
:102AF0005DC188A19AE0692F0E94BB18892F8D8F34
:102B000088A1282F30E08D8D882F90E0A901481BE7
:102B1000590BCA012AE030E0B9010E94DB18CB0151
:102B20008E8FA8E3B0E0E8E3F0E0808181608C93D1
:102B3000A8E3B0E0E8E3F0E0808182608C938E8DC2
:102B40008295807F8E8FABE3B0E0EBE3F0E0808195
:102B50008F708C93ABE3B0E0EBE3F0E090818E8D6F
:102B6000892B8C93A8E3B0E0E8E3F0E080818E7FCE
:102B70008C93A8E3B0E0E8E3F0E0808182608C937E
:102B800080E090E0A0E2B1E4898F9A8FAB8FBC8F98
:102B9000698D7A8D8B8D9C8D20E030E04AE753E47F
:102BA0000E941F02DC01CB018D8B9E8BAF8BB88FF7
:102BB0006D897E898F89988D20E030E040E85FE361
:102BC0000E94250488232CF481E090E09C8B8B8B61
:102BD0003FC06D897E898F89988D20E03FEF4FE758
:102BE00057E40E94C50318164CF5698D7A8D8B8DBC
:102BF0009C8D20E030E040E251E40E941F02DC01A5
:102C0000CB01BC01CD010E944900DC01CB019C8BB2
:102C10008B8B0FC089E190E09A8B898B89899A8987
:102C20000197F1F79A8B898B8B899C8901979C8BF3
:102C30008B8B8B899C89009769F714C06D897E897D
:102C40008F89988D0E944900DC01CB019C8B8B8B76
:102C50008B899C89988B8F878F8598890197F1F74D
:102C6000988B8F87A8E3B0E0E8E3F0E08081816093
:102C70008C93A8E3B0E0E8E3F0E080818D7F8C9353
:102C80008D8D8295807F8D8FABE3B0E0EBE3F0E03C
:102C900080818F708C93ABE3B0E0EBE3F0E0908148
:102CA0008D8D892B8C9380E090E0A0E2B1E48B873E
:102CB0009C87AD87BE876B857C858D859E8520E052
:102CC00030E04AE753E40E941F02DC01CB018F830E
:102CD0009887A987BA876F81788589859A8520E04A
:102CE00030E040E85FE30E94250488232CF481E073
:102CF00090E09E838D833FC06F81788589859A851A
:102D000020E03FEF4FE757E40E94C50318164CF54B
:102D10006B857C858D859E8520E030E040E251E426
:102D20000E941F02DC01CB01BC01CD010E944900C1
:102D3000DC01CB019E838D830FC089E190E09C83F1
:102D40008B838B819C810197F1F79C838B838D8191
:102D50009E8101979E838D838D819E81009769F767
:102D600014C06F81788589859A850E944900DC01AD
:102D7000CB019E838D838D819E819A8389838981F6
:102D80009A810197F1F79A838983A8E3B0E0E8E399
:102D9000F0E0808181608C93A8E3B0E0E8E3F0E0AC
:102DA000808182608C938F8D8F5F8F8F8F8D843128
:102DB00008F49FCEA0960FB6F894DEBF0FBECDBF2D
:102DC000CF91DF910895DF93CF93CDB7DEB7AFE416
:102DD000B0E0EFE4F0E080818E7F8C93AFE4B0E070
:102DE000EFE4F0E080818D7F8C93AEE4B0E0EEE420
:102DF000F0E0808188608C93AEE4B0E0EEE4F0E037
:102E000080818F7E8C93AFE4B0E0EFE4F0E08081CE
:102E10008F738C93AFE4B0E0EFE4F0E080818064E6
:102E20008C93A9E5B0E0E9E5F0E0808191818061D3
:102E300011969C938E93AEE4B0E0EEE4F0E08081D6
:102E4000887F8C93AEE4B0E0EEE4F0E080818560B2
:102E50008C93CF91DF910895DF93CF9300D0CDB7BE
:102E6000DEB79A838983E6E4F0E089819A819183D1
:102E700080830F900F90CF91DF910895DF93CF93D0
:102E800000D0CDB7DEB79A838983EAE4F0E0898188
:102E90009A81918380830F900F90CF91DF91089555
:102EA000DF93CF9300D0CDB7DEB79A838983898132
:102EB0009A8190938501809384010F900F90CF9118
:102EC000DF9108951F920F920FB60F9211242F9346
:102ED0003F934F935F936F937F938F939F93AF93A2
:102EE000BF93EF93FF93DF93CF93CDB7DEB7E0911E
:102EF0008401F09185010995CF91DF91FF91EF91C8
:102F0000BF91AF919F918F917F916F915F914F9101
:102F10003F912F910F900FBE0F901F901895DF9348
:102F2000CF93CDB7DEB7A3E5B0E0E3E5F0E0808175
:102F300088608C93A3E5B0E0E3E5F0E080818F7BCF
:102F40008C93A9E5B0E0E9E5F0E0808182608C93A4
:102F5000A3E5B0E0E3E5F0E08081887F8C93A3E512
:102F6000B0E0E3E5F0E0808185608C93A3E5B0E01C
:102F7000E3E5F0E080818F7D8C93A3E5B0E0E3E5AD
:102F8000F0E0808180618C93CF91DF910895DF9391
:102F9000CF930F92CDB7DEB78983E2E5F0E0898168
:102FA00080830F90CF91DF910895DF93CF930F929D
:102FB000CDB7DEB78983ECE5F0E0898180830F909F
:102FC000CF91DF910895DF93CF9300D0CDB7DEB7D7
:102FD0009A83898389819A8190937A018093790178
:102FE0000F900F90CF91DF9108951F920F920FB61F
:102FF0000F9211242F933F934F935F936F937F937F
:103000008F939F93AF93BF93EF93FF93DF93CF93F0
:10301000CDB7DEB7E0917901F0917A010995CF91B2
:10302000DF91FF91EF91BF91AF919F918F917F9130
:103030006F915F914F913F912F910F900FBE0F9025
:103040001F901895DF93CF93CDB7DEB7E0E2F0E0A5
:103050008CE08083E1E2F0E01082E2E2F0E082E0E6
:103060008083E6E5F0E084E08083CF91DF910895EE
:10307000DF93CF93CDB7DEB7E6E5F0E084EA808357
:10308000E6E5F0E080818823DCF7CF91DF910895B9
:10309000DF93CF93CDB7DEB7E6E5F0E084E9808338
:1030A000CF91DF910895DF93CF930F92CDB7DEB725
:1030B0008983E3E2F0E089818083E6E5F0E084E85B
:1030C0008083E6E5F0E080818823DCF70F90CF91E4
:1030D000DF910895DF93CF93CDB7DEB7E6E5F0E05B
:1030E00084EC8083E6E5F0E080818823DCF7E3E28E
:1030F000F0E08081CF91DF910895DF93CF93CDB73A
:10310000DEB7E6E5F0E084E88083E6E5F0E0808184
:103110008823DCF7E3E2F0E08081CF91DF9108952E
:10312000DF93CF930F92CDB7DEB7E1E2F0E080817D
:10313000887F898389810F90CF91DF910895DF93F4
:10314000CF9300D0CDB7DEB70E94D60D0E94710B91
:103150000E94F61489830E940B158A838A816981F3
:103160000E9456129E012E5F3F4F80E090E0B90111
:103170000E94BB0BEDCF991B79E004C0991F9617F5
:1031800008F0961B881F7A95C9F780950895AA1BA9
:10319000BB1B51E107C0AA1FBB1FA617B70710F042
:1031A000A61BB70B881F991F5A95A9F78095909574
:1031B000BC01CD01089597FB092E07260AD077FDA3
:1031C00004D0E5DF06D000201AF4709561957F4F9A
:1031D0000895F6F7909581959F4F08952F923F920D
:1031E0004F925F926F927F928F929F92AF92BF9217
:1031F000CF92DF92EF92FF920F931F93CF93DF93C3
:10320000CDB7DEB7CA1BDB0B0FB6F894DEBF0FBE1F
:10321000CDBF09942A88398848885F846E847D846C
:103220008C849B84AA84B984C884DF80EE80FD806E
:103230000C811B81AA81B981CE0FD11D0FB6F894E4
:0E324000DEBF0FBECDBFED010895F894FFCFA5
:10324E00000000000000000000010202030303035F
:10325E000404040404040404050505050505050518
:10326E0005050505050505050606060606060606F8
:10327E0006060606060606060606060606060606E0
:10328E0006060606060606060707070707070707C8
:10329E0007070707070707070707070707070707B0
:1032AE0007070707070707070707070707070707A0
:1032BE000707070707070707070707070707070790
:1032CE000707070707070707080808080808080878
:1032DE000808080808080808080808080808080860
:1032EE000808080808080808080808080808080850
:1032FE000808080808080808080808080808080840
:10330E00080808080808080808080808080808082F
:10331E00080808080808080808080808080808081F
:10332E00080808080808080808080808080808080F
:10333E0008080808080808080808080808080808FF
:0E334E0008080808080808083C0101010100F1
:00000001FF
